:020000040800F2
:1000000000000320150D000811080008130800085F
:10001000150800081708000819080008000000006B
:100020000000000000000000000000001B080008A5
:100030001D080008000000001F0800082108000833
:10004000650D0008650D0008650D0008650D0008C8
:10005000650D0008650D0008650D0008650D0008B8
:10006000650D0008650D0008650D0008650D0008A8
:10007000650D0008650D0008650D0008650D000898
:10008000650D0008650D0008650D0008650D000888
:10009000650D0008650D0008650D0008650D000878
:1000A000650D0008650D0008650D0008650D000868
:1000B000650D0008650D0008650D0008650D000858
:1000C000650D0008650D0008650D0008650D000848
:1000D000650D0008650D0008650D0008650D000838
:1000E000650D0008650D0008650D0008650D000828
:1000F000650D0008650D0008650D0008650D000818
:10010000650D0008650D0008650D0008650D000807
:10011000650D0008650D0008650D0008650D0008F7
:10012000650D0008650D0008650D0008650D0008E7
:10013000650D000825080008650D0008650D00081C
:10014000650D0008650D0008650D0008650D0008C7
:10015000650D0008650D0008650D0008650D0008B7
:10016000650D0008650D0008650D0008650D0008A7
:10017000650D0008650D0008650D0008650D000897
:10018000650D0008650D0008650D0008650D000887
:10019000650D0008650D0008650D0008650D000877
:0C01A000650D0008650D0008650D0008E5
:1001B00010B5054C237833B9044B13B10448AFF3A1
:1001C00000800123237010BD00000020000000000B
:1001D0003C96000808B5034B1BB103490348AFF335
:1001E000008008BD00000000040000203C960008CC
:1001F00010F8012B11F8013B012A28BF9A42F7D0D1
:10020000D01A70470000000000000000000000004D
:1002100001F0FF01102A2BDB10F0070F08D010F8B7
:10022000013B013A8B422DD010F0070F42B3F6D1BB
:10023000F0B441EA012141EA014122F007047FF0D4
:1002400000070023F0E80256083C85EA010586EA2B
:10025000010685FA47F5A3FA87F586FA47F6A5FA67
:1002600087F68EB9EED1F0BC01F0FF0102F0070273
:1002700032B110F8013B013A83EA010313B1F8D11E
:100280000020704701387047002D06BF35460338FF
:10029000073815F0010F07D1013015F4807F02BF38
:1002A000013015F4C03F0130F0BC0138704700BF89
:1002B00053B94AB9002908BF00281CBF4FF0FF31CD
:1002C0004FF0FF3000F06EB9ADF1080C6DE904CECF
:1002D00000F006F8DDF804E0DDE9022304B0704721
:1002E0002DE9F047089D04468C46002B40F08380A2
:1002F0008A42174647D9B2FA82F242B1C2F12000CF
:1003000024FA00F09140974040EA010C94404FEAF3
:100310001748230CBCFBF8F61FFA87FE08FB16C132
:1003200043EA014306FB0EF1994209D9FB1806F195
:10033000FF3080F01981994240F21681023E3B4421
:100340005B1AA4B2B3FBF8F008FB103344EA034491
:1003500000FB0EFEA64509D93C1900F1FF3380F0E1
:100360000581A64540F2028102383C4440EA06403D
:10037000A4EB0E0400261DB1D4400023C5E90043C0
:100380003146BDE8F08702B9FFDEB2FA82F2002AF8
:1003900050D1CB1B4FEA174E1FFA87F80126B3FB4B
:1003A000FEFC210C0EFB1C3341EA034108FB0CF35D
:1003B0008B4207D979180CF1FF3002D28B4200F240
:1003C000E9808446C91AA3B2B1FBFEF00EFB1011FE
:1003D00043EA014408FB00F8A04507D93C1900F1A5
:1003E000FF3302D2A04500F2D9801846A4EB0804DE
:1003F00040EA0C40BFE78B4209D9002D00F0B180E4
:100400000026C5E9000130463146BDE8F087B3FA61
:1004100083F6002E4AD18B4202D3824200F2B8808A
:10042000841A61EB030101208C46002DA8D0C5E998
:10043000004CA5E7C2F1200320FA03F6974001FA29
:1004400002F04FEA174ED9403043030CB1FBFEF6E1
:100450001FFA87F80EFB161143EA014306FB08F169
:10046000994204FA02F409D9FB1806F1FF3C80F026
:100470008D80994240F28A80023E3B445B1A81B2F1
:10048000B3FBFEF00EFB103341EA034100FB08F31F
:100490008B4207D9791800F1FF3C73D28B4271D996
:1004A00002383944CB1A40EA064678E7C6F1200CF8
:1004B00003FA06F422FA0CF31C4320FA0CF701FAB3
:1004C00006F34FEA144E21FA0CF11F433B0CB1FB2B
:1004D000FEF91FFA84F80EFB191143EA014109FBEA
:1004E00008FA8A4502FA06F200FA06F308D96118FA
:1004F00009F1FF3048D28A4546D9A9F102092144C1
:10050000A1EB0A01BFB2B1FBFEF00EFB101147EAEE
:10051000014700FB08F8B84507D9E71900F1FF319A
:100520002ED2B8452CD90238274440EA0940A7EB1F
:100530000807A0FB02894F45C64649461AD317D083
:100540005DB1B3EB0E0267EB010707FA0CFCF2405A
:100550004CEA0202F740C5E9002700263146BDE813
:10056000F0872E4628460BE70646E9E61846FDE6E4
:100570004345E5D2B8EB020E69EB04010138DFE731
:100580000846D2E760468DE78146B9E7664675E7DB
:1005900030464AE7ACF1020C394413E702383C44D8
:1005A00024E700BF704700BF00236122994200DCAE
:1005B0007047C2540133F9E710B594B010220021FE
:1005C0000AA808F011F81422002103A808F00CF87A
:1005D000204B002101911A6C42F080521A641B6C6E
:1005E00003F080530193019B1B4B02911A6842F464
:1005F00040421A601B6803F440430293029B0121AE
:100600004FF480330224CDE908134FF48003042013
:10061000CDE90E43A823CDE91003072308A81294BF
:10062000139301F0D5F908B172B6FEE70F23CDE9B7
:10063000033405904FF4A0524FF48053052103A8D2
:10064000CDE9062301F09EFB08B172B6FEE714B0B7
:1006500010BD00BF003802400070004080B58CB073
:1006600000F0A6FBFFF7A8FF1422002107A807F05F
:10067000BBFF0024504B01941A6B504842F0040217
:100680001A631A6B02F004020192019A02941A6B27
:1006900042F080021A631A6B02F080020292029A00
:1006A00003941A6B42F001021A631A6B02F0010202
:1006B0000392039A04941A6B42F002021A631A6BB3
:1006C00002F002020492049A05941A6B42F00802A6
:1006D0001A631A6B02F008020592059A06941A6BC7
:1006E00042F040021A631B6B03F04003224606935C
:1006F00044F28101069B01F05DF922463048402119
:1007000001F058F94FF400524FF488132D48099422
:1007100007A9CDE90723012701F066F844F2810318
:10072000264807A9CDE90737CDE90944022601F09B
:100730005BF84FF44073CDE907362348099407234B
:10074000032507A9CDE90A5301F04EF840231C48C0
:1007500007A9CDE90737CDE9094401F045F8802321
:100760001748099407A9CDE9073401F03DF84FF483
:10077000E853CDE9073615480A2307A9CDE909450D
:100780000B9301F031F84FF400731048099407A956
:10079000CDE9073401F028F801F096FB00F04AF9A2
:1007A0000B480C4C4CF25031FFF7FEFE204601F096
:1007B000C5FC06F031FBF9E70038024000040240B6
:1007C0000018024000080240000C024000000240F5
:1007D00078000010B001002082B00C4B0021009185
:1007E0005A6C42F480425A645A6C02F4804200927D
:1007F000009A01911A6C42F080521A641B6C03F04B
:1008000080530193019B02B0704700BF0038024043
:10081000FEE7FEE7FEE7FEE7FEE77047704770473A
:1008200000F0E0BA014800F037BD00BFC81A002050
:1008300001207047024B16221A604FF0FF307047BC
:1008400028250220014B16221A60FEE728250220E7
:1008500070B50E4614460025A54201DB204670BD4A
:10086000AFF3008070550135F6E770B50E461446BB
:100870000025A54201DB204670BD705DAFF300800E
:100880000135F6E74FF0FF3070474FF400534B60EF
:100890000020704701207047002070470A4B1968FC
:1008A00010B5024609B9094919601868084C094988
:1008B0000244091B8A4289BF074B1A600C221A6046
:1008C00088BF4FF0FF3010BD1C000020C8C30010CF
:1008D000000400000000032028250220034AD2F86B
:1008E000883043F47003C2F88830704700ED00E0B0
:1008F000704738B504460D46002102F019FF00216B
:10090000204602F031FF0021204602F015FF0021B1
:10091000204602F041FF0021204602F055FF002250
:100920001146204602F056FF15B1284601F090FD11
:100930002046BDE8384003F097BA000038B50C46B1
:100940002046012102F0C0FE0C2001F0CBFE014642
:10095000B0B101230025038044608560204602F089
:10096000E7FE0A49204602F0E7FE0949204602F068
:1009700013FF204607492A4602F02CFF284638BDBF
:100980002046FFF7B6FF4FF0FF30F8E7750C000880
:10099000F1080008E1090008F8B505460E4634687C
:1009A000ECB16289B5F86430934218D361680123D1
:1009B000284605F0A9F978B920686789306008B140
:1009C00002F020FB204602F0D7F90028FAD0394681
:1009D000284602F025FEE2E7013000D13460F8BD80
:1009E000034610B50846194643B19C685CB91B78AC
:1009F000032B01D1FFF77DFF204603E003F06AF8E7
:100A00006FF00C0010BD0020FCE708B50346002283
:100A10005A709A6808462AB103F10801FFF7BCFF33
:100A2000002008BD1A78032AFAD11946FFF761FFA2
:100A3000F6E7000013B503F061F90B4B01930722B1
:100A400001A9044602F0F6FC40B9FF21204602F05D
:100A5000ADFD064902F0B8FE02B010BD21460120EE
:100A600001F04CFFF8E700BFC0A801073D090008EE
:100A7000F8B50E4C8DB2064629464FF4207236204A
:100A8000276802F0DDF92368B8602A463146986885
:100A900002F0D8FB2168064B08311868FFF77CFF8D
:100AA00023689868BDE8F84002F066B9200000208D
:100AB00024000020634B70B51960634B18608B688D
:100AC0009AB005460C4658686049FFF791FBF8B9A3
:100AD00000F180404FF4804100F5013000F06FFFDD
:100AE0005B4901A807F0E0FD4FF420721321362086
:100AF00002F0A6F92646132246F8080F01A902F0D3
:100B0000A1FB28463146FFF747FFA06802F034F901
:100B1000A36850495868FFF76BFBF0B900F18040BB
:100B2000802100F5013000F04AFF494901A807F093
:100B3000BBFD4FF420721321362002F081F92646C6
:100B4000132246F8080F01A902F07CFB2846314623
:100B5000FFF722FFA06802F00FF9A3683E4958682A
:100B6000FFF746FBF0B900F18040012100F50130AC
:100B700000F025FF364901A807F096FD4FF42072DA
:100B80001321362002F05CF92646132246F8080F9E
:100B900001A902F057FB28463146FFF7FDFEA06889
:100BA00002F0EAF8A3682D495868FFF721FBA8B9BD
:100BB0004FF420724CF25031362002F041F92646B3
:100BC000274946F8080F4CF2503202F03BFB28460A
:100BD0003146FFF7E1FEA06802F0CEF8A368214994
:100BE0005868FFF705FBA8B94FF420724CF250315A
:100BF000362002F025F92646194946F8080F4CF22E
:100C0000503202F01FFB28463146FFF7C5FEA068B0
:100C100002F0B2F8A36814495868FFF7E9FA20B95E
:100C20000F484CF25031FFF723FFA3680F49586873
:100C3000FFF7DEFA18B90E480521FFF719FF1AB0C1
:100C400070BD00BF20000020240000206496000832
:100C5000689600087C96000881960008599E000856
:100C600078000010889600088E9600089496000878
:100C700097960008F8B50E4615461F46044628B953
:100C8000204B214921487B2207F0B6FCA5B903235C
:100C90002370A36833B921463046FFF72AFE2F465A
:100CA0003846F8BD30461A4902F05EFD04F10801ED
:100CB0003046FFF771FEF2E72FB10023A36028460C
:100CC00002F05AF8ECE72378012B0BD102231049EC
:100CD0002370A560304602F047FD21463046FFF7FD
:100CE000E9FEDDE7022B07D1A06808B9A560F4E7AB
:100CF000294602F0D5F9D3E72989304602F090FC65
:100D0000A760DCE79D960008B6960008C29600082A
:100D10000B0A0008DFF834D00D480E490E4A0023B4
:100D200002E0D458C4500433C4188C42F9D30B4A9F
:100D30000B4C002301E013600432A242FBD3FFF707
:100D4000CDFD07F011FCFFF789FC70470000032080
:100D500000000010780000101CB700080000002000
:100D600038250220FEE7000038B50E4A0E4B054636
:100D700018784FF47A73B3FBF0F31068B0FBF3F01C
:100D800000F0A8F8044658B90F2D09D802462946A4
:100D90004FF0FF3000F05EF8044B20461D6038BD78
:100DA0000120FCE700000010040000100800001003
:100DB00008B50B4B1A6842F400721A601A6842F4C4
:100DC00080621A601A6842F480721A60032000F090
:100DD0002FF80020FFF7C8FFFFF7FEFC002008BD3A
:100DE000003C0240034A044B11681B780B4413601B
:100DF000704700BFA801002004000010014B1868D4
:100E0000704700BFA801002038B50446FFF7F6FF81
:100E1000631C1CBF054B1B78054618BFE418FFF781
:100E2000EDFF431BA342FAD338BD00BF04000010FE
:100E30000749CA6822F4E0620302120403F4E06383
:100E4000120C134343F0BF6343F40033CB6070478D
:100E500000ED00E0164B30B5DC68C4F30224C4F1A9
:100E60000705231D042D28BF0425062B4FF0FF3353
:100E70008CBF033C002403FA05F521EA0501A340D9
:100E800022EA0302A140002841EA0203ACBF00F1BC
:100E90006040084A4FEA0313B8BF00F00F00DBB20E
:100EA000AABF00F56140135480F8003330BD00BF85
:100EB00000ED00E014ED00E0002808DB420901230A
:100EC00000F01F0003FA00F0014B43F822007047C6
:100ED00000E100E00138B0F1807F0AD2064B074AFA
:100EE0005860F02182F823100020072298601A60D1
:100EF00070470120704700BF10E000E000ED00E007
:100F0000074B82B01B684FF4FA52B3FBF2F3019324
:100F100000BF019B5A1E0192002BF9D102B070470D
:100F20000000001007B50023019341F21801036887
:100F30005A5842F480125A505B580193FFF7E0FF71
:100F4000019A03685A5003B05DF804FB70B504467B
:100F500029B14FF480434FF40062C0E90232E369E3
:100F60002268002BD4E902350CBF4FF480610021C8
:100F70002B4310680B432D4901400B4343F400738E
:100F8000136001201568FFF73FFF236840221D60B2
:100F900001205A605D68FFF737FF23685D60002518
:100FA0009D60DD609A6922F0BE021204120C42F0CC
:100FB00080029A6101209E69FFF726FF23680120C5
:100FC0009E61DD61DD69FFF71FFF2268184BD56167
:100FD00041F21805012051590B4043F0087343F0CA
:100FE000040353515659FFF70FFF2368114A5E510E
:100FF00003F5805301201A601D68FFF705FF226882
:1010000002F580531D60A369012B07D141F21C0139
:10101000535843F4803343F0400353506369064A06
:10102000998811601A68054B1A6070BD0F8120FF06
:10103000233FDEF88020C10240800240448002400D
:101040002DE9F04190F84540012C4FF0020431D0D9
:10105000012580F8455080F84440C1620C460025C7
:101060004FF4801740F2F45C03F1FF3E9D420CD137
:10107000026841F21003D150012380F8443000236C
:1010800080F845301846BDE8F0810CFB0526A660C7
:10109000C66927601EB9266846F44006266004F13A
:1010A0002006AE4594BF8846B046C4F80C80013592
:1010B0003446DBE72046E6E72DE9F04390F845406B
:1010C000012C4FF002042FD0012580F8455080F804
:1010D000444081620C4600254FF0004744F2F45C26
:1010E00040F2F45E03F1FF38AB420CD1026841F2EA
:1010F0000C03D150012380F84430002380F84530A0
:101100001846BDE8F0830EFB0526A66004F1200614
:10111000A84594BF8946B1462760C4F804C0C4F806
:101120000C9001353446DFE72046EAE7F0B590F849
:101130004530012B4FF0020368D0012280F8452092
:1011400080F8443029B980F8442080F845101046D2
:10115000F0BDC36A1C68002C06DA122380F8443004
:10116000002380F84530F2E740F2F454A1422ED932
:10117000B1FBF4F204FB12143CB30132244C01F233
:10118000F45104FB0211C1F30C01002440F2F456A7
:10119000571E1D6825F040551D601CB91D6845F09F
:1011A00080551D60A74208BF1D685E6004BF45F002
:1011B00000551D601D6808BF5960013445F00045A9
:1011C00094421D60DB68E4D10DE0012AD6D11A6893
:1011D00042F040521A601A68C1F30C0142F000421A
:1011E00059601A60DB68C36241F2140203689958BF
:1011F000490705D50421995041F204020021995074
:10120000012380F84430002380F8453018469FE7DA
:101210000CFAFFFF30B590F84530012B4FF0020378
:1012200023D080F844300124836A80F845401A684E
:10123000002A27DB1A68D96812F4807217D0826BF3
:1012400043632244A24208BF03631B688263C3F363
:101250000D43043BC363036B9B680364012380F865
:1012600044300023816280F84530184630BD1D6847
:101270008162AD0553BF836B8463C0E90C320133D7
:1012800058BF83630123002280F8443080F8452052
:10129000EBE770477047704770B5026841F214067B
:1012A0000446955915F0400521D0FFF7F3FF236858
:1012B00040229A51012384F84430002384F84530B9
:1012C000236841F214054FF480325A515B591B04D4
:1012D0000CD52046FFF7DFFF23684FF400425A5138
:1012E000012384F84430002384F8453070BD9359BD
:1012F000DA07E5D5FFF7CDFF22680123935184F883
:10130000443084F84550DBE7F8B590F84430822B40
:101310000646154631D0822380F84430348A03686B
:10132000E4021869890101F4F861A4B200F01C001C
:101330000C43044344F001041C61FFF75FFD0746C2
:1013400014F0010408D133685B699BB22B60012360
:1013500086F8443020460CE0FFF750FDC01BB0F586
:10136000803F07D3012386F84430002386F84530B8
:101370000320F8BD33681C69E2E70220F9E770B585
:1013800090F84430422B05462FD0422380F8443059
:101390002C8A0368E4021869890101F4F861A4B297
:1013A00000F01C000C43044392B244F003045A6161
:1013B0001C61FFF723FD064614F0010404D101234C
:1013C00085F8443020460CE0FFF718FD801BB0F58F
:1013D000803F07D3012385F84430002385F845304A
:1013E000032070BD2B681C69E6E70220F9E70000C6
:1013F000F7B5002300930446002800F0DF8090F842
:10140000443003F0FF021BB980F8452000F000FED5
:10141000002301936A4B5A6C42F480425A645B6C1D
:1014200003F480430193019B664B5A6822F4000247
:101430005A605A68216A0A435A60236803F5805348
:101440001A6842F001021A60FFF7D8FC05462368CB
:1014500003F580521268D0071DD41D6900F02EFDDF
:10146000594B5A4A0344934225F01C0522D245F0B9
:10147000080523684FF400421D6100212046FFF754
:101480007EFF054668B3012120460125FFF75EFD7A
:1014900084F844500BE0FFF7B1FC401BB0F5FA7F35
:1014A000D5D90325002384F8445084F845302846D4
:1014B00003B0F0BD464B474A0344934202D845F07F
:1014C0000C05D6E7444B454A03449342D1D3444BE1
:1014D000444A0344934294BF45F0040545F0100587
:1014E000C7E7FF20FFF790FC6368002B54D0FFF79D
:1014F00085FC41F2883706466A4601212046FFF7FF
:1015000003FFFFF77BFC801BB8420BD9012120466B
:10151000FFF71CFD012384F84430002384F8453094
:101520000325C4E7009B5907E6D54FF480520021FC
:101530002046FFF724FF0028A5D1FFF75FFC41F20A
:10154000883706466A4601212046FFF7DDFEFFF791
:1015500055FC801BB842D9D8009B9A06F2D56A4642
:1015600010212046FFF7D0FE00288CD1009B13F0FD
:10157000040218BF4FF400629B0758BF4FF480432A
:10158000E2604CBFA060A36000212046FFF7DEFCB4
:10159000012384F844308AE7D4E902325B0843EA45
:1015A000D20292B229462046FFF7E9FE00287FF4D6
:1015B0006AAF40F6FF70FFF727FCE5E7012576E705
:1015C000003802400038014000D3CEFEC0E1E40004
:1015D00040F1E9FD3F787D0100796CFC005A620220
:1015E000001F0AFA7FF0FA0237B590F84530012B58
:1015F0004FF002042FD080F84440036800240125F6
:1016000080F8455001941A6842F008021A601B687D
:101610000193FFF775FC0368019A1A6000941A6839
:1016200042F004021A601B680093FFF769FC03682C
:10163000009A1A60FFF776FC41F218030268D1584D
:1016400041F40051D150D15841F00201D15080F8FD
:10165000445080F84540204603B030BD37B590F87F
:101660004530012B4FF002042FD0036880F844402E
:1016700041F21802012580F84550995821F4005193
:101680009950995821F002019950002401941A6848
:1016900022F004021A601B680193FFF731FC036813
:1016A000019A1A60FFF73EFC036800941A6822F062
:1016B00008021A601B680093FFF722FC0368009A77
:1016C0001A6080F8445080F84540204603B030BD91
:1016D000F8B590F84530012B05460C464FF0020056
:1016E00071D0012685F844002A6885F84560D5E95F
:1016F0000270002968D01368DFF8E8C00CEA030C18
:10170000D1E900310B43A1680B43E1680B43216928
:101710000B4361690B43A1690B43E1690B43216AE8
:101720000B43616A0B43A16A0B433B43034343EA08
:101730000C03136030461768FFF766FBD4E90B31E2
:101740000B43616B2A680B43A16B17600B43E16B82
:101750000B43216C0B43616C0B43A16C0B43536037
:1017600030465768FFF750FB2A68E36C5760936078
:10177000236DD360D4E916300343206E916903438F
:10178000606E0343A06E21F0BE010343606D090447
:10179000090C43EA00430B43936130469769FFF716
:1017A00033FBD4E91B212B680A439F613046DA6181
:1017B000DC69FFF729FB2B68DC610123002085F839
:1017C000443085F84500F8BD116847EA000321F46C
:1017D00090410B43136030461468FFF715FB2B68EC
:1017E0001C60EAE70F8120FF2DE9F74FDFF8C09179
:1017F0006D4A00230D6801249C4004EA050CAC43AB
:1018000040F0B9804D6805F003044FEA4308032611
:10181000671E06FA08F6012F6FEA060634D88768B5
:1018200007EA060ECF6807FA08F747EA0E0787604F
:10183000476827EA0C0EC5F300179F4047EA0E07DA
:101840004760C76807EA060E8F6807FA08F747EA95
:101850000E07022CC76019D14FEAD30A00EB8A0A9F
:1018600003F0070BDAF820704FEA8B0B4FF00F0EE6
:101870000EFA0BFE27EA0E0E0F6907FA0BF747EA7E
:101880000E07CAF8207001E0032CDAD1076804FAC9
:1018900008F43E40264315F4403F06606BD04FF0FD
:1018A000000ACDF804A0D9F84460404C46F48046C4
:1018B000C9F84460D9F8446006F480460196019E58
:1018C00023F0030606F1804606F59C3603F0030E6E
:1018D000D6F808804FEA8E0E0F2707FA0EF7A042BF
:1018E00028EA07074ED004F58064A0424CD004F5E6
:1018F0008064A0424AD004F58064A04248D004F538
:101900008064A04246D004F58064A04244D004F52F
:101910008064A04242D004F58064A04240D004F527
:101920008064A0423ED004F58064A0420CBF09242C
:101930000A2404FA0EF43C43B46014686FEA0C06FF
:10194000EF0354BF34404CEA040414605468AF03FE
:1019500054BF34404CEA040454609468EF0254BF0E
:1019600034404CEA04049460D468AD0254BF34405F
:101970004CEA0404D4600133102B7FF43BAF03B076
:10198000BDE8F08F5446D4E70124D2E70224D0E723
:101990000324CEE70424CCE70524CAE70624C8E7DD
:1019A0000724C6E70824C4E7003C014000000240C9
:1019B000003802400AB1816170470904FBE74369BE
:1019C00001EA030221EA030141EA02418161704711
:1019D0002DE9F341044640B30368DD0710D42368C2
:1019E00098075ED423681A0700F1A08023685B077C
:1019F00000F1BE80A069002840F01F8100202BE08C
:101A0000A64B9A6802F00C02042A07D09A6802F0EA
:101A10000C02082A0BD15A68510208D59F4B1B684B
:101A20009A03DCD56368002BD9D1012014E06268E9
:101A3000B2F5803F13D11A6842F480321A60FFF782
:101A4000DDF9964E054633689B03C8D4FFF7D6F9F7
:101A5000401B6428F7D9032002B0BDE8F0818F4D08
:101A6000B2F5A02F2B6807D143F480232B602B689D
:101A700043F480332B60E2E723F480332B602B6840
:101A800023F480232B60002AD9D1FFF7B7F906464B
:101A90002B689F03A3D5FFF7B1F9801B6428F7D902
:101AA000D9E77E4B9A6812F00C0F07D09A6802F0C3
:101AB0000C02082A11D15B685E020ED4774B1A68BB
:101AC000950702D5E268012AAFD11A68216922F090
:101AD000F80242EAC1021A6084E7E268704BB2B1D0
:101AE00001221A60FFF78AF96C4D06462B689807A9
:101AF00007D52B68226923F0F80343EAC2032B6061
:101B000070E7FFF77BF9801B0228EFD9A3E71A6083
:101B1000FFF774F9614E0546336899077FF562AFA8
:101B2000FFF76CF9401B0228F6D994E762695D4B18
:101B30007AB101221A60FFF761F9584E0546736FBA
:101B40009F073FF553AFFFF759F9401B0228F6D91D
:101B500081E71A60FFF752F9504E0546736F9807F8
:101B60007FF544AFFFF74AF9401B0228F6D972E728
:101B70004A4B1A6C12F0805228D101921A6C42F032
:101B800080521A641B6C03F080530193019B012760
:101B9000454D2B68D9051BD5A368404D012B27D196
:101BA0002B6F43F001032B67FFF728F93B4E0546E7
:101BB00041F28838336F9B0739D5002F3FF41AAFB5
:101BC000364A136C23F08053136413E70027DFE7D2
:101BD0002B6843F480732B60FFF710F906462B68DF
:101BE000DA05D9D4FFF70AF9801B0228F7D932E7C2
:101BF000052B04D12B6F43F004032B67D0E72A6F2A
:101C000022F001022A672A6F22F004022A67002BC1
:101C1000CAD1FFF7F3F841F2883806462B6F9807D0
:101C2000CBD5FFF7EBF8801B4045F7D913E7FFF75B
:101C3000E5F8401B4045BDD90DE7184DAB6803F0F2
:101C40000C03082B47D0194E00230228336035D1EE
:101C5000FFF7D4F807462B68990129D4D4E9073255
:101C60001343626A43EA8213E26A43EA0263A26AA6
:101C70005208013A43EA02436B6001233360FFF7E5
:101C8000BDF8064D04462B689A013FF5B7AEFFF745
:101C9000B5F8001B0228F6D9DDE600BF0038024087
:101CA00000004742800E47420070004060004742FB
:101CB000FFF7A4F8C01B0228CDD9CCE6FFF79EF8A9
:101CC00004462B689B017FF599AEFFF797F8001B40
:101CD0000228F6D9BFE601283FF4BEAE6B68E26980
:101CE00003F4800191427FF4A0AE216A03F03F0229
:101CF0008A427FF49AAE616A47F6C0721A40B2EB2C
:101D0000811F7FF492AEA26A520803F44031013A77
:101D1000B1EB024F7FF489AEE26A03F07063B3EB7C
:101D2000026F3FF46BAE80E6134908B58B6803F091
:101D30000C03042B1CD0082B1CD14A684B68496843
:101D400013F4800314BF0D480D48C1F3881118BF68
:101D5000002302F03F02A1FB0001FEF7A9FA064BA7
:101D60005B68C3F3014301335B00B0FBF3F008BDD4
:101D70000248FCE70248FAE70038024000127A0005
:101D80000024F4002DE9F0410D46044610B901206D
:101D9000BDE8F081444B1A6802F00F028A4228D352
:101DA000226897072DD4D00741D43F4B1A6802F020
:101DB0000F02AA4266D8226851076CD4130707D5D0
:101DC0003A4A2169936823F4604343EAC10393606C
:101DD000FFF7AAFF354B364A9B68C3F30313D35C66
:101DE000D840344B1860344B1868FEF7BDFF002014
:101DF000CEE7CAB21A701B6803F00F038B42C6D13C
:101E0000CEE72A4B12F0040F1EBF996841F4E0514F
:101E10009960160742BF996841F46041996023496F
:101E2000A0688B6823F0F00303438B60BBE7626814
:101E30001E4B012A1CD11B6813F4003FA7D01B4E78
:101E4000B36823F003031343B360FEF7D7FF41F2F7
:101E500088380746B368626803F00C03B3EB820F5F
:101E6000A3D0FEF7CBFFC01B4045F3D903208FE77B
:101E7000911E01291B6802D813F0007FDEE713F0E2
:101E8000020FDBE7EAB21A701B6803F00F03AB42E4
:101E90007FF47DAF8FE70549E0688B6823F4E0535A
:101EA00003438B608AE700BF003C024000380240D9
:101EB000549600080000001008000010014B18683C
:101EC000704700BF00000010F0B51F4E1F4D204CA2
:101ED0000723F370FF2385B0C020A82101222B70B7
:101EE0006B70AB700027082320706170A270E370E4
:101EF00030707170B270EF7000F07DFA1549336880
:101F0000154A0B602B681360144B20681860144846
:101F1000144C02901448CDE90070204600F08AFD70
:101F2000204600F01DFE94F82D305B07204608D5B2
:101F300000F01CFE0D490B4805B0BDE8F04000F074
:101F40004BBE00F02DFEF5E7EC010020E80100207B
:101F5000AC010020E4010020F0010020F401002089
:101F600059840008B00100201D2200084523000804
:101F70002DE9F74F254AD66A4FF00008B3680C46A2
:101F80004746914640F2F45B2CB920483946FFF7AA
:101F9000CDF8204604E03268002A11DA6FF007001D
:101FA000D9F8003041F214029958890605D520214C
:101FB000995041F204020021995003B0BDE8F08F1E
:101FC000628945464FF0000A616805EB0208D84572
:101FD00003EB0500514408D8CDE9002306F0F6FADA
:101FE000009A2468019B1744CEE7ABEB05052A460F
:101FF00006F0ECFAF6683368002BCFDBAA442F44D6
:10200000B368A8F2F4520025DEE700BFC81A00202A
:10201000F0B504468DB01422002107A806F0E4FABA
:102020002268414B9A427DD1A3F59043002400944D
:102030001A6B3E4842F000721A631A6B02F000728B
:102040000092009A01941A6B42F080621A631A6B34
:1020500002F080620192019A02941A6B42F00062CF
:102060001A631A6B02F000620292029A03941A6BCE
:1020700042F004021A631A6B02F004020392039AFC
:1020800004941A6B42F001021A631A6B02F0010207
:102090000492049A05941A6B42F002021A631A6BB6
:1020A00002F002020592059A06941A6B42F0400271
:1020B0001A631B6B099403F040030693022703265F
:1020C0000B25069B07A93223CDE90737CDE90A6521
:1020D000FFF78AFB862316480B9507A9CDE907373A
:1020E000CDE90946FFF780FB4FF4005311480B95EB
:1020F00007A9CDE90737CDE90946FFF775FB4FF48E
:1021000020530D480B9507A9CDE90737CDE90946BE
:10211000FFF76AFB3D2022462146FEF79BFE3D204D
:10212000FEF7CAFE0DB0F0BD00800240000802407C
:102130000000024000040240001802402DE9F74F61
:10214000354C80462046FFF765F8054600285FD1EC
:10215000A18F19BB0026236BA06B0022824250D1B5
:1021600041F2140123685858000642BF802058509D
:1021700041F208014FF0000248BF5A50A263002EFE
:1021800046D0D8F8103041463046984700283FD016
:10219000304603B0BDE8F04F00F0EEBD4FF4C17221
:1021A000276C00F04DFE06460028D3D0D4F830A0AE
:1021B000B94640F2F45B0746B7F80AE0AC460023A4
:1021C00078680CEB0E055D45184409EB0C0106D848
:1021D000724606F0FBF93F68002FEDD1BBE7ABEB91
:1021E0000C020193009206F0F1F9DDE90023DAF820
:1021F0000CA0A5F2F45EDAF8089013444FF0000C3E
:10220000DEE7196841F000411960DB680132A5E79B
:1022100003B0BDE8F08F00BFC81A002030B50446F7
:1022200085B030B9394B3A493A484FF4067206F056
:10223000E3F9394D394947F2734301224FF48040A5
:10224000C5E90012E3854FF40062354B6361C5E9CF
:102250000202344B344AA3610292002302AAC5E968
:10226000052301932B82ADF80C30EB6128464FF427
:1022700000032B62FFF7BCF828B994F82D3043F027
:10228000040384F82D30294A294923480423FEF702
:10229000D7FE2849284A20480423FEF70DFF0623CD
:1022A00084F82C306B691C481A7884F826205A78F8
:1022B00084F827209A7884F82820DA7884F829206E
:1022C0001A7984F82A205B7984F82B3040F2DC53A9
:1022D000A38494F82D3043F00A0384F82D30FFF7DF
:1022E00083F901AA1D210C48FFF70EF8019A0A484C
:1022F00042F00B021D210192FFF741F801AA1D21B6
:102300000548FFF701F8002005B030BDEA96000847
:1023100006970008C2960008C81A002000800240F4
:1023200051760008711F00080080E100101B00209A
:10233000F8010020481A002078020020FEF75EBD58
:102340007047000073B590F82D30002105465807FE
:102350000091019144D5244C6368002B35D04FF493
:1023600080522046FFF70BF8FEF748FD2646009006
:1023700001AA01213046FEF7C7FFFEF73FFD009B93
:10238000C01AB0F57A7F20D8019B9A06F0D501AA31
:1023900015481021FEF7B8FF019B13F0040218BF87
:1023A0004FF400629B074CBF00234FF48043E26070
:1023B000A3600D480021FFF78BF90B48FFF714F9D4
:1023C0002846FFF7BDFF02B070BDD4E902235208D2
:1023D00042EAD30292B200210348FEF7D0FFE8E7B9
:1023E0000148FFF73BF9EBE7C81A002040BA80B27A
:1023F000704700BA704708B500F00CF800F054FAC6
:1024000000F0EAFA04F034FD00F0F0FFBDE8084007
:1024100004F0ECBC0A4B0B4A0B4823F00303136097
:102420004FF4DC310022C3E900121A725A1802601C
:102430000120C2E900111072044A1360704700BF06
:10244000FB3200202C00002030000020280000205B
:102450002DE9F0410446002800F09680830708D05B
:102460004A4B4B4940F27322BDE8F041494806F01F
:10247000C3B8494A1368A0F10C05AB42904605D891
:10248000464F3A6800F10C018A4204D23F4B44495E
:1024900040F27F22E8E710F8041C21B93B4B414988
:1024A0004FF42372E0E750F80C6CB6F5DC3F10D81F
:1024B00050F8080CB0F5DC3F0BD8E91A814202D085
:1024C0001858814205D133449A4207D05B6899423B
:1024D00004D02E4B344940F29522C5E7334E0023F9
:1024E00004F8043C3368AB4288BF3560AA421CD86C
:1024F000264B2F4927484FF4F07206F07DF814F868
:10250000043C33B1214B2B49224840F2E11206F042
:1025100073F854F80C3CB3F5DC3F06D91B4B264945
:102520001C484FF4F27206F067F8D8F8003054F8FF
:102530000C1C5A18954212D0107A80B93868824221
:102540000DD0306882425A5844F80C2C5A5808BFB3
:102550003560B2F5DC3F1EBFD218E91A516054F85D
:10256000082C99188D420FD0087A68B930688542D6
:1025700008BF316054F80C1C995054F80C1CB1F58C
:10258000DC3F1CBF5B185A60BDE8F081149700085F
:1025900043970008C29600082C000020300000205D
:1025A000649700087D970008A39700082800002082
:1025B000D5970008EF9700080A9800082DE9F04722
:1025C000CD1C25F003050B2D044604D9B5F5DC3FE1
:1025D00002D9002454E00C25A942FAD8394F3B68AF
:1025E000A34203D8384B1B68A34206D8374B38495F
:1025F000384840F2D12205F0FFFFD7F800A0A245ED
:102600003ED8314B1B68A3423AD954F80C9CA4F134
:102610000C06A6EB0A06A9F10C039B1BAB4207D2E2
:102620002A4B2D492B484FF4397205F0E5FFD0E7CE
:1026300026D00AEB090898F8082022BBB9F5DC3F40
:1026400006D1224B2549234840F2F52205F0D4FF5C
:1026500023495AF8090006F10C031D443B680F6832
:102660005A19474508BF0A60002111725851566037
:1026700044F80C5C5A59B2F5DC3F01D013445D605C
:102680002046BDE8F08705F118029A42F8D806F115
:102690000C03B9F5DC3F1D4406D10C4B0F490D4826
:1026A00040F2163205F0A8FF0D493B6808685A1938
:1026B000904288BF0A600021117254F80C1C5951D5
:1026C000D5E700BF2C000020300000201497000840
:1026D00034980008C29600084B9800086B980008D0
:1026E000280000202DE9F84300287CD0C31C23F0EB
:1026F00003030B2B04D9B3F5DC3F02D9002072E0B1
:102700000C239842FAD83D4A3D4E116835689046F0
:102710006D1AC3F5DC376FF00B0CAF42EED94C19D4
:102720004859227A002A66D1ACEB050202449A424B
:1027300061D303F10C0718339A4256D305EB07090E
:10274000B9F5DC3F06D12F4B2F49304840F2873294
:1027500005F052FFD8F8003003EB09020021117296
:10276000216843F8091055600122C4F800902272D4
:1027700053F80920B2F5DC3F02D01344C3F80490AB
:102780003368234DA34211D12968D8F800001A7A82
:102790000AB199422CD19942336007D032B1194B1A
:1027A0001C491A4840F2B53205F026FF2B68274431
:1027B000BB4206D2134B1849144840F2B93205F017
:1027C0001BFFA3070DD00F4B1449104840F2BB323A
:1027D00005F012FF0B4B12490C4840F2BD3205F0D8
:1027E0000BFF04F10C00BDE8F88301232372C7E757
:1027F0001B680344CBE705468FE700BF2C00002091
:1028000028000020149700086B980008C296000862
:10281000300000207C98000895980008C5980008B2
:10282000F498000810B5046854B123680360A30746
:1028300006D0044B044905484FF48C7205F0DCFEC9
:10284000204610BD1799000847990008C296000855
:1028500038B58B0705460C4606D0064B0649074897
:102860004FF4B67205F0C8FE2B681A6822601C602F
:1028700038BD00BF179900086A990008C296000881
:102880004368816830B50022033344880A6023F02E
:102890000303944200DC30BD0D681D6005880B60A9
:1028A00001322B44F5E7000038B5054D0924013C01
:1028B00055F8040BA4B2FFF7E3FF002CF7D138BDA5
:1028C000309A0008082808B507D8084B53F820307C
:1028D0009868BDE80840FFF7A5BF054B05490648C5
:1028E00040F2571205F088FE002008BD309A00081B
:1028F000179900088A990008C2960008082806D986
:10290000074B084908484FF4D57205F075BE29B148
:10291000064B53F820000830FFF79ABF704700BFFE
:1029200017990008A7990008C2960008309A000875
:102930006FF00B007047000038B50D46044630B903
:102940000C4B0D490D4840F26D3205F055FE94F8E0
:102950002D3003F00502052A0BD1EA0709D562687C
:102960003AB11B0705D5211D2046BDE8384004F0CB
:1029700041BD38BD549A0008859A0008C2960008E7
:1029800073B5054616460C4631B9104B104911482F
:1029900040F2CB1205F030FE6B6822689A4201D1FA
:1029A000002010E0336001A93046019201F0CAF81E
:1029B00001A9304604F040FB23686B6028460121E2
:1029C000FFF7BAFF012002B070BD00BF549A0008A3
:1029D000A89A0008C296000870470000F7B5144F87
:1029E000002914BF0D463D46002A14BF16463E4638
:1029F000002B18BF1F462B680446B3B901AA29460D
:102A0000FFF7BEFF01233268A1688A4218BFA260A7
:102A10003A68E1688A4218BFE26023B901AA2946F0
:102A20002046FFF7ADFF03B0F0BD0023EBE700BF8A
:102A300084B300082DE9F84F0B9F9846044648B927
:102A40003D4B3E493E4840F2271205F0D5FD204659
:102A5000BDE8F88F47B9384B3A4939484FF494727A
:102A600005F0CAFD3C46F2E7374E46610A9E066213
:102A7000364EDFF8E0C00C9B96F800E003610025BD
:102A8000C0E90155C560858480F82D50C56180F886
:102A900030E0A84514BF43466346AA4208BF6246D9
:102AA000A94208BF6146FFF799FF2046B8470028B2
:102AB00040D1DFF8A490204BC84694F83020D9F8D4
:102AC0000050DFF898B0DFF878A0FF2A04BF00229A
:102AD00084F8302000272DB994F83030FE2B20D117
:102AE0002B4620E0A54206D140F28B1259465046B3
:102AF00005F082FD104B0137FF2F06DD144940F22F
:102B00008D12504605F078FD0B4B94F8301095F877
:102B100030208A4203D1013284F83020CDE72D687D
:102B2000D9E70133DBB23370D8F800302360C8F83E
:102B300000408CE72C468AE7549A0008B89A0008AF
:102B4000C2960008D19A00083129000858000020D8
:102B5000079B000884B30008FC240220F39A0008B5
:102B6000014B1860704700BF0025022030B9094BA7
:102B700009490A484FF4547205F03EBD90F82D20E3
:102B8000D10706D442F0010280F82D200321FFF77F
:102B9000D3BE7047549A0008359B0008C2960008BF
:102BA00030B90A4B0A490B4840F29B3205F024BD6C
:102BB00090F82D20D10707D522F00101130780F8E6
:102BC0002D1001D504F060BB704700BF549A000877
:102BD000519B0008C296000800B1C1617047000017
:102BE000034658B1064A106800B9704790F8302083
:102BF0000132D2B29A4201D00068F5E7704700BFB7
:102C0000FC24022038B568B9144B1549154840F228
:102C1000DF1205F0F1FC01201FE0002AFBD0426822
:102C2000511A14E0B1F5803FF5D2A9B1038913FA26
:102C300081F38CB29BB29C42EDD890F90C50002DE0
:102C4000EBDA4268511A00F114029142E3D342894F
:102C50004160144444810381002038BD6F9B00080B
:102C6000419C0008C2960008064B00221A70064BD1
:102C7000186800B97047436F0BB100F007BEC06819
:102C8000F7E700BF042502200C25022022F04003B4
:102C9000012B70B506460D46144606D00A4B0B496B
:102CA0000B484FF4A57205F0A7FC0720FFF70AFEBA
:102CB00048B10023C0E90036012205814581047333
:102CC0004373C281037470BD6F9B00089F9B000813
:102CD000C296000870B50330BDF81450049C20F073
:102CE00003000E18AE420ED804B104441846002367
:102CF0000273C0E900340222427301220181418142
:102D0000C281037470BD0020FCE70022FFF77ABF88
:102D100010B590B9104B114940F24B22104805F004
:102D20006BFC012008E09B1A44684381038921441D
:102D30009B1A41600381002010BDB1F5803FF0D2A5
:102D40000029F8D043898AB29342ECD2024B05495C
:102D500040F25522E2E700BF6F9B0008419C00084B
:102D6000C2960008B19B00080B1E02DA5942FFF719
:102D7000CFBF0122FFF746BF2DE9F843044650B903
:102D8000294B2A492A484FF4377205F035FC25466D
:102D90002846BDE8F883244EDFF8A080244F0025A4
:102DA000E38933B9334640F2F1224146384605F013
:102DB00023FCE389013B9BB2E381002BE8D1637BD9
:102DC000D4F800909B0712D5636933B9194933468B
:102DD00040F2FF22384605F00FFC63692046984711
:102DE0000135EDB2B9F1000FD2D04C46D8E7237BC4
:102DF00003F00F03022B04D121460820FFF77EFDCC
:102E0000EEE7012B02D121460720F7E71BB9204648
:102E1000FFF71EFBE4E70849334640F20F3238461D
:102E200005F0EAFBDCE700BF6F9B0008419C00084F
:102E3000C2960008E59B0008069C0008CF9B00088E
:102E4000B2F5C17F2DE9F04706460F4685B214D092
:102E500008D822F04003012B07D1BDE8F04700203D
:102E6000FFF714BFB2F5207F40D0304B30493148D6
:102E700040F2271205F0C0FB0EE00026DFF8C090FC
:102E80003446B0460820FFF71DFDB246064648B955
:102E9000294B01221A700CB9002422E02046FFF7CA
:102EA0006BFFF9E7EB1C23F00303C3F514739BB22C
:102EB0000544BB4205F1170528BF3B4625F0030535
:102EC000C0F80080456007814381C0F80C9080F80D
:102ED00010804CB1CAF80000FB1A9FB20025002FE9
:102EE000D0D12046BDE8F0870446F5E70335CB1C7A
:102EF00023F0030325F003051D44ADB29D4205F107
:102F00001400C9D38342C7D8FFF7ECFB044600285E
:102F1000E7D0064417360023084A036026F003066C
:102F2000466007814781C2600374DAE76F9B00083F
:102F3000189C0008C29600080425022080000100A9
:102F4000820001002DE9F0470E46044630B9244BBB
:102F5000244925484FF4CC7205F04EFB2789B7422F
:102F60003BD9DFF87C80DFF888A0DFF87C9035461D
:102F70006289AA4218D3237B190726D1AA4224D0FA
:102F8000637B9B0721D46168091B20462944FFF716
:102F900015FB0446C8B9124B1449134840F2BD1240
:102FA00005F02AFB6481FFDEAD1A2289F31B13446E
:102FB00023812468ADB2002CDAD1434640F2AF122F
:102FC0005146484605F018FBD2E720686581258107
:102FD00008B1FFF7D1FE00232360BDE8F08700BFF2
:102FE0006F9B0008339C0008C2960008639C000891
:102FF0004B9C00080346002290B2013203B970478F
:103000001B68F9E758B1C38901339BB2C38133B957
:10301000034B0449044840F2423205F0EDBA7047D0
:103020006F9B00087F9C0008C296000870B50D4693
:10303000044600B161B9BDE87040144B144915480D
:1030400040F2593205F0D8BA29890B44238114463D
:1030500022682389002AF7D162899A420FD00B4B4C
:103060000D490C4840F2623205F0C6FA236833B1CC
:10307000064B0A49074840F2633205F0BDFA2A8937
:10308000238925601344238170BD00BF6F9B000816
:10309000919C0008C2960008C69C0008F39C00089A
:1030A00010B50C46FFF7C2FF2046BDE81040FFF701
:1030B000A9BF00002DE9F84F0C46054620B119B113
:1030C00002890B899A420AD2344B354940F2C932FF
:1030D000344805F091FA6FF00F00BDE8F88F002634
:1030E000DFF8B8B0DFF8CCA0DFF8B8903746B5F815
:1030F0000A80628968686168A8EB0708921B90459E
:1031000028BF904631443844424605F05FFA6B8947
:1031100047449F42464406D95B4640F2D932514665
:10312000484605F069FA63899E4206D91E495B4606
:1031300040F2DA32484605F05FFA63899E426B89B5
:1031400024BF246800269F4208D12D682DB914B3EE
:10315000124B16494FF47972BAE700277CB16289A5
:1031600023899A420BD123684BB10C4B40F2E932D0
:103170000F490C4805F040FA6FF00500ADE76A8989
:103180002B899A4205D12B681BB1044B40F2EE32D9
:10319000EEE7002CABD120469FE700BF6F9B0008F5
:1031A000039D0008C29600084A9D0008659D00081E
:1031B000729D0008339D00082DE9F843884691462A
:1031C000064650B91B4B1C491C4840F20A4205F008
:1031D00013FA37463846BDE8F88349BB154B184902
:1031E000164840F20B4205F007FA4746F2E77589A8
:1031F00053B1AB4208D35B1B9BB23668B9F1000FE9
:10320000E8D0002EF3D1E5E7EC1AA4B24C45716882
:1032100028BF4C462246194408EB070005F0D6F9B2
:103220002744A9EB0402BFB21FFA82F90023E4E7A6
:103230000027E3E76F9B00089C9D0008C2960008EA
:10324000BB9D00082DE9F84F89461646054650B942
:10325000244B254940F2B342244805F0CDF96FF0E4
:103260000F00BDE8F88F21B91E4B214940F2B4424E
:10327000F2E7038993422BD21A4B1E491B4840F2B6
:10328000B54205F0B9F94FF0FF30EAE72DB940F249
:10329000BD425146584605F0AFF96F896868A742AC
:1032A00028BF274609EB08013A4605F08FF92D683B
:1032B0000C4BE41BB844002CE8D1B04506D0094BB8
:1032C0000D490A484FF4996205F096F92046C8E77F
:1032D000044BDFF828A0DFF814B014464FF00008C4
:1032E000E9E700BF6F9B0008DE9D0008C29600085A
:1032F000F59D0008109E0008489E0008309E0008BA
:1033000038B515460A462989FFF79AFD044650B19B
:103310002946FFF7CFFE30B1044B0549054840F27E
:10332000245205F069F9204638BD00BF6F9B0008A4
:103330005E9E0008C2960008124A1388F0B54FF44A
:1033400080404FF6FF7601339BB20F4DB34208BF6A
:103350004FF44043042155F8044B246834B9013933
:1033600011F0FF01F7D11380184607E0E78A9F426A
:1033700005D1013880B20028E5D11380F0BDE468A2
:10338000ECE700BF10000010A0A4000810B5044630
:1033900030B9134B134914484FF4CE7205F02CF991
:1033A000237D042B03D0072B0CD0032B08D1204600
:1033B00003F0ACF860B905232375204603F008FA42
:1033C000002010BD204603F0A1F808B90923F3E757
:1033D000431CF6D1638B43F008036383F0E700BF1F
:1033E0006F9E00089E9E0008C296000808B505F072
:1033F0001BF9034B6FEA80406FEA9040188008BDCC
:103400001000001010B5037D012B044605D1064BBA
:1034100006490748D42205F0EFF821460120BDE80F
:103420001040FFF76BBA00BF6F9E0008AA9E00080D
:10343000C2960008F8B5234D0446002918BF0D4672
:1034400048B9214B2149224840F2A92205F0D4F87D
:103450006FF00F00F8BD037D4BB11B4B1D491C489D
:1034600040F2AB2205F0C8F86FF00500F2E732B980
:10347000FFF762FF024650B96FF00100EAE7164815
:1034800050F8041B096871B90133042BF8D12B687B
:1034900003B12360114BE2821A68E2601C6003F002
:1034A0006FFC0020D6E7CE8A964205D10F682FB177
:1034B0002E681EB1B74201D0C968E4E76FF007007B
:1034C000C8E700BF84B300086F9E0008BB9E0008D9
:1034D000C2960008D19E0008A0A40008182502206A
:1034E000F8B51646054668B9294B2A492A4840F2DC
:1034F000593205F081F82C466FF00F0306B1337096
:103500002046F8BD077D57B1214B2449224840F29F
:103510005A3205F071F800246FF00E03EEE7022036
:10352000FFF7D0F9044600282FD02B690361012250
:10353000EB8AC38202756A7D42756A7A42720772AB
:10354000EA7AC272AA7A82722A6802603BB1144A8D
:103550001368AB4211D1EB6813600023EB6028467F
:10356000FFF750FF0F4BA3610F4B1A68E2601C601E
:1035700003F006FC0023C1E71346002BEDD0DA6808
:10358000AA42F9D1EA68DA60E7E74FF0FF33B5E71E
:103590006F9E0008F99E0008C2960008269F00084A
:1035A00018250220DD3A0008142502200022FFF72A
:1035B00097BF000038B5044630B9154B1549164879
:1035C00040F2A63205F018F8218DE36A628E656A32
:1035D000C81AB2F5067F284494BF821AA0F5067275
:1035E000002A01DB618538BDEA1A002A02DD0020CD
:1035F0006085F8E75D1BB5F5803F06D3044B0749AE
:10360000054840F2B63204F0F7FF65850020EAE78E
:103610006F9E00085D9F0008C2960008819F000809
:1036200070B50C46054640B9BDE87040174B1849C7
:10363000184840F2CF3204F0DFBF037D012B06D1E2
:10364000124B1549134840F2D23204F0D5FF2B8DAE
:10365000191989B2B1F5866F13D88B4288BF4FF420
:10366000866129852846FFF7A5FFB0F5867F0BD335
:103670006B8B43F002036B832846BDE8704003F078
:10368000A7B84FF48661ECE770BD00BF6F9E0008DD
:103690009B9F0008C2960008B39F000810B504461F
:1036A00048B1406808B1FFF767FB21460320BDE839
:1036B0001040FFF723B910BD10B500B910BD046864
:1036C000FFF7ECFF2046F8E730B9044B0449054802
:1036D0004FF4CE6204F090BF417570476F9E0008B2
:1036E000D99F0008C296000838B5044630B90D4B82
:1036F0000D490E4840F2826204F07EFF0320FFF77E
:10370000E1F8054660B12346024604F1100153F882
:10371000040B42F8040B8B42F9D16868FFF772FC86
:10372000284638BD6F9E0008F29F0008C296000828
:1037300000B101617047000038B50D46044658B12C
:10374000037D012B06D1054B0549064840F2DF7287
:1037500004F052FFC4F8845038BD00BF6F9E0008CB
:103760000CA00008C296000838B50D46044658B1B2
:10377000037D012B06D1054B0549064840F2F37243
:1037800004F03AFFC4F8805038BD00BF6F9E0008B7
:1037900033A00008C296000838B50D46044658B15B
:1037A000037D012B06D1054B0549064840F60D0265
:1037B00004F022FFC4F8905038BD00BF6F9E00088F
:1037C0005AA00008C296000818B1037D012B08BF5B
:1037D0008161704770B50E461546044640B9BDE894
:1037E00070400A4B0A490B4840F63D0204F004BF02
:1037F000037D012B06D1054B0749064840F63E02E2
:1038000004F0FAFE6577C4F88C6070BD6F9E000806
:1038100080A00008C296000896A0000808B530B93C
:10382000064B0749074840F6AF0204F0E5FE064B99
:10383000064A186812681044186008BD6F9E000898
:10384000B4A00008C29600080C0000101025022049
:1038500038B504460D4632B9094B0A490A4840F6C4
:10386000C50204F0C9FE4DB1AB8C3BB1282B86BF1D
:10387000283B9BB200239C4228BF1C46204638BDF3
:103880006F9E0008CEA00008C296000810B504463E
:10389000406F18B1FFF710FF0023636710BD0000F1
:1038A00010B5044640B9BDE81040134B1349144805
:1038B00040F6510204F0A0BE037D012B1AD90A2B59
:1038C00018D0806F18B1FFF757FA0023A367636F12
:1038D00013B12046FFF7DAFF4FF6FF732386E06E41
:1038E000FFF7EAFE206FFFF7E7FE0023C4E91B3372
:1038F000A4F8683010BD00BF6F9E0008F5A0000856
:10390000C296000838B505460C4631B9294B2A49FC
:103910002A4840F6830204F06FFE35B9254B28494A
:10392000264840F6840204F067FE2B68A3421FD1AC
:10393000E3682B600023E3602046FFF7B1FF237D9F
:103940000A2B1DD1E36E6BBB236F33B1194B1D499D
:103950001A4840F6940204F04FFE636FF3B1154B22
:103960001949164840F6960204F046FE16E0134642
:10397000002BDFD0DA68A242F9D1E268DA60D9E739
:10398000012B0BD0638BDA07DCD543F00203638392
:10399000204602F01DFF237D012BD3D10023237588
:1039A000E38238BD034B0949044840F6930204F012
:1039B00023FEC9E76F9E000810A10008C296000808
:1039C0002CA1000864A100087DA100084CA10008FA
:1039D0002DE9FF470E46044648B9364B364937486D
:1039E00040F23D2204B0BDE8F04704F005BE037D7F
:1039F000012B06D12F4B324930484FF4107204F09E
:103A0000FBFD237D0A2B09D12E482146FFF77AFFC3
:103A1000204604B0BDE8F047FFF7F4BCD4F850905E
:103A2000D4F824A0D4F89070D4F81080E58A9BB91B
:103A30003DB1254A1368A34206D1E368136000250F
:103A4000E5602E460FE01346002BF8D0DA68A2425C
:103A5000F9D1E268DA60F2E71C482146FFF752FF2D
:103A60001B4B01221A70206F08B1FFF725FEE06E94
:103A700008B1FFF721FE606F08B1FFF71DFE56B1D8
:103A8000238BCDE90153231D00935246234649461B
:103A9000204602F025FE2046FFF7B4FC3FB16FF050
:103AA0000C0140463B4604B0BDE8F047184704B05F
:103AB000BDE8F0876F9E000894A10008C296000838
:103AC000ADA100081C250220182502200C2502208B
:103AD000082502200121FFF77BBF000010B50C462E
:103AE00031B9064B0649074840F20F3204F084FD15
:103AF0002046FFF7EFFF6FF00C0010BD6F9E00082F
:103B0000DEA10008C296000870B50C46054630B923
:103B1000094B0A490A484FF4106204F06DFD04B9DC
:103B200070BD22682B68E6689A4202D12046FFF7F2
:103B3000D1FF3446F3E700BF6F9E0008FBA10008E9
:103B4000C296000838B50D46044680B1036873B1CB
:103B50000B4B1968FFF7D8FF0A4B20461968FFF78F
:103B6000D3FF25B12B6813B1074B1B6803B938BDD0
:103B700019682268914204BF2A681A60DB68F5E779
:103B80000C25022018250220142502200C4B196850
:103B90000C4B30B400221D680446104619B968B1B8
:103BA00030BCFFF715BF0B7DA34205D10B6AEB1AA2
:103BB000934224BF1A460846C968EFE730BC7047F5
:103BC0000C25022010250220F8B504460120FEF73E
:103BD00079FE0346002836D13F4E3068002857D181
:103BE0003E4B3F4D1B682F680146002B5BD108B14F
:103BF000FFF770FF0120FEF765FE034618BB0920A2
:103C0000FFF7C4FF0120FEF75DFE0346D8B9082088
:103C1000FFF7BCFF0120FEF755FE034698B92206C8
:103C200049D45CB1214632682E680139C9B20020FE
:103C3000002A42D113B11846FFF74CFF0120FEF7CE
:103C400041FE034610B39C221846002104F0CCFC30
:103C50004CF25032A0F86420224A8262FF22C272E3
:103C60000622A0F84020C2871F4A02631C4A4475FE
:103C7000126802621D4A127882771D4A82641D4AC8
:103C8000C0F884201C4AC0F8942003461846F8BDAA
:103C9000438BC568190704D523F008034383FFF756
:103CA00075FB28469AE71A6ABA1A8A4224BF184650
:103CB0001146DB6899E77F21B5E7577D8F4204D332
:103CC00007D1156A751B854203D3106A3946301A2D
:103CD0001346D268ACE700BF0C2502201C25022049
:103CE0001025022030043004FFFF18025A00002083
:103CF000010050C3A53E000800DD6D004020FFF725
:103D000063BF000030B50D4685B0044630B94B4B5B
:103D10004B494C484FF4AF7204F06EFC237D002DEC
:103D20003FD0042B01D0072B3BD1A26F1AB9228DB3
:103D3000B2F5866F35D0638BDB0606D43F4B424924
:103D400040484FF4B27204F057FC238B0293E38A8D
:103D50000193231D0093626A216D2346204602F0E1
:103D6000BFFC2046FFF79CFD384A1368A34210D1E0
:103D7000E36813600023E360354B01221A70354B72
:103D80001B68A3421DD101F035FE002005B030BDF7
:103D90001346002BEED0DA68A242F9D1E268DA606D
:103DA000E8E7012B1AD0022B39D0002B3FD1E38A50
:103DB0003BB1294A1368A34208D1E368136000238A
:103DC000E3602046FFF71EFBDFE71346002BF6D02B
:103DD000DA68A242F9D1E268DA60F0E71F49002010
:103DE00051F823201268A2B90133042BF8D11C48E2
:103DF0002146FFF787FD237D012B05D10F4B194984
:103E00001048DF2204F0F8FB21460220FEF776FD81
:103E1000BBE7D56FAC4208BFD067D268E3E70B4879
:103E20002146FFF76FFD0A4B01221A70C9E72046B1
:103E300005B0BDE83040FFF7A9BA00BF6F9E00088B
:103E40002FA20008C29600084FA200080C250220ED
:103E5000082502202025022018250220A0A4000801
:103E60001425022068A2000808B558B1037D012B73
:103E70001EBF438B43F0100343830121BDE808407C
:103E8000FFF740BF044B054905484FF4F47204F0B6
:103E9000B3FB6FF00F0008BD6F9E000881A2000801
:103EA000C296000810B50846144649B90C4B0D4996
:103EB0000D484FF4D36204F09FFB6FF00F0010BD6C
:103EC0003AB11189FFF7ACFB2046FEF755FF002001
:103ED000F5E71BB9BDE81040FFF7C6BF1046EEE797
:103EE0006F9E000898A20008C2960008F8B5044624
:103EF00050B91D4B1D491E4840F2096204F07CFB7D
:103F00006FF00F052846F8BD866FD0F88450777B98
:103F100000238367DDB1014632460069A8470546A4
:103F2000E0B9BB06EED5238DD4F88460B3F5866F77
:103F30001CBF01332385002EE4D0002320691A46DC
:103F40002146B0470D30DDD16FF00C05DAE70146B0
:103F50002B4632462846FFF7A5FFE0E70D35F3D0A4
:103F6000A6676FF00405CDE76F9E0008B3A20008B6
:103F7000C29600082DE9F8431B4D1C4F2B781C4EB0
:103F800001332B703C684FF000080CB9BDE8F88392
:103F90002B78A27F9A4224D0A377638BD90709D5C7
:103FA00043F002036383204602F012FC638B23F08C
:103FB00003036383638B1A0705D523F00803638328
:103FC0002046FFF7E3F9A36FD4F80C903BB12046ED
:103FD00086F80080FFF78AFF3378002BD2D14C4659
:103FE000D3E7D4F80C90FAE75A0000200C25022001
:103FF000082502202DE9F04FB84EDFF8ECA2336817
:10400000B74F01333360B74B1A7887B001321A705B
:104010000493B54BDFF8FC821C684FF000096CB9C3
:10402000B24FDFF8BC823D68DFF8ECA2DFF8E49223
:10403000002D40F0BE8107B0BDE8F08F237D33B97D
:10404000AB493B4640F2BE42404604F0D5FA237DE0
:10405000012B06D1A7493B4640F2BF42404604F03F
:10406000CBFA237D0A2B06D1A3493B464FF4986235
:10407000404604F0C1FA049BA27F1B789A4203D108
:10408000E568A1462C46CAE7227DA377022A94F868
:10409000423040F08980052B40F288804FF0010BC0
:1040A000237D062B0BD1628BD20608D53268216A9C
:1040B000521A282A84BF0BF1010B5FFA8BFB657A39
:1040C00015F0080519D0042B02D0072B40F03881D9
:1040D0003168236AD4F89450C91A05F5242202F6EF
:1040E000B8424FF4FA70B2FBF0F2914240F21681FE
:1040F0000BF1010B5FFA8BFB0125636F63B1336832
:10410000226A9A1AB4F9403003EB4303B2EB430F2F
:1041100002D32046FFF7BAFB237D032B40F0128128
:104120003368226A9B1A282B03D8BBF1000F00F0DA
:104130001E812046D4F890B0FFF7B2FBDAF80030C9
:10414000B9F1000F00F00681A34206D16B493B464E
:1041500040F26D52404604F04FFAE368C9F80C3063
:104160005DB1238B0293E38A0193231D0093626A5E
:10417000216D2346204602F0B3FA2369E5680593D2
:1041800020465F4CFFF73EF900222270BBF1000F82
:1041900008D0059B6FF00C011846D8472378002BF8
:1041A0007FF437AF4C466CE70B2B75E794F899B06A
:1041B000BBF1000F46D0236F33B152493B4640F26A
:1041C000D442404604F018FAE36E33B94E493B46F8
:1041D00040F2D542404604F00FFA94F89A300B2B87
:1041E0003FF65CAF94F89920484B134413F8012C28
:1041F00094F8983093420BD3B4F8601089B12046FC
:1042000002F024F890B9204602F0E2FA30B10DE055
:104210000133DBB2934284F89830EDD24FF0000BBB
:104220003EE7204602F0DEFC0028F7D194F89930F2
:104230004FF0000B062B84F898B0EFD8013384F8C8
:1042400099302DE7238E47F6FE7293429CBF0133CF
:104250002386B4F93020B4F940309A42DEDB2046A0
:1042600002F084F928B1236F002BD7D1E36E002B25
:10427000D4D0237D022B14D0B4F93C20B4F93E30C5
:10428000234903EBE20394F842200C2A28BF0C22B6
:104290008A5C934047F6FF729342A8BF1346A4F886
:1042A0004030B4F86020B4F84830658EA4F8485027
:1042B0009A4228BF1A466B009BB25108B3EB520FCB
:1042C0004FF0000098BF0B462086A4F86A00A4F8BF
:1042D0004A30204602F028FCE2E600BF102502200A
:1042E0006F9E00085A0000200C2502201C25022089
:1042F000D9A2000803A300082DA30008C1A3000849
:10430000082502205AA300088CA30008B0A40008C6
:1043100092A40008C296000816A4000894F89B30E6
:104320003F4A02FB0353B3FBF0F3994208D92046FE
:1043300002F030FC20B994F89B30013384F89B30B4
:104340000025DAE6092B7FF4F0AE3368226A9B1A67
:10435000F02BE9E6A34206D032493B4640F27152C7
:10436000404604F049F9E368CAF80030F8E6237FD4
:10437000627FE5680133DBB29A4223773FF681AE74
:10438000DFF8AC90D4F88C3084F81CB089F800B019
:104390001BB9204602F01CFA73E6206921469847B3
:1043A00099F80030002B7FF434AE00287FF469AE1A
:1043B000EFE72B7D0A2B06D0434640F2A15251462F
:1043C000484604F019F933682A6A9B1AF02B10D971
:1043D0002846FFF765FA7CB93B68AB4206D0124924
:1043E000434640F2B352484604F006F9EB683B609E
:1043F0000EE02C46ED681BE63B68AB4206D10B494C
:10440000434640F2AF52484604F0F6F8EB68E360EA
:10441000D5F80CB02846FEF7F5FF5D4608E600BF6C
:10442000F8240100ECA300086CA4000845A40008CF
:104430000825022008B5FFF79DFD064A13780133D1
:10444000DBB21370DB0703D5BDE80840FFF7D2BD30
:1044500008BD00BF59000020094A1388591C11806B
:10446000084A12681AB1084909888B4204D2074ADF
:1044700012681344187D70475B1ADBB2D05C70473A
:1044800084000020900000208C0000208800002084
:10449000F8B50C46054630B91E4B1F491F4840F27F
:1044A0001F4204F0A9F8EB689889FDF79FFFC20747
:1044B00014D41B4EE76830682B897968228903443D
:1044C0000A449A1A002A0FDA5B1A002B0ADD091A2D
:1044D00089B268682981FEF735FD03E02046FFF7C1
:1044E000EBF800242C60F8BDB889FDF77FFFC30707
:1044F00007D5EB6801209F89FDF778FFEB6838430B
:10450000988127682046FFF7C9F83C46002FD1D193
:10451000E8E700BFB7A40008E9A40008C2960008B5
:1045200080000020F8B5064630B91D4B1D491E48D5
:1045300040F27D7204F060F81C4B1F8867B11C4D7F
:1045400000232B802B88BB4206D2FFF785FF012872
:10455000F8D0022801D0C8B9F8BDFFF77DFF0428C4
:10456000FAD12B880133BB42F6DAFFF775FF04025C
:10457000FFF772FFA4B244EA00039BB25A1EB2F5E1
:10458000067F28BF4FF406737386DBE7FFF764FFEF
:104590000128E1D92B88023B18442880D2E700BFCC
:1045A000B7A400080EA50008C296000894000020D9
:1045B0008400002010B5044630B90F4B0F49104855
:1045C00040F25A2204F018F80E4B187810F0100040
:1045D00011D0638BDB0606D4D4F890301BB1206970
:1045E0006FF00E01984708482146FFF78BF92046E7
:1045F000FEF708FF012010BDB7A4000828A5000899
:10460000C29600087C0000200C2502202DE9F84FFE
:10461000DFF8AC80DFF8A090DFF8A8A006461746C8
:104620000C46002C36D0E3685868FDF7E2FEE368DC
:10463000258983469889FDF7D9FED8F8003010F017
:104640000300A5EB030318BF012003EB0B05054492
:10465000002D20DCD4E900B0FEF7CCFC3388834287
:10466000054606D212484B4640F25742514603F0E7
:10467000C3FF30880F4A451B3580118823892046A7
:104680000B441380FFF70AF833887BB1BBF1000FAE
:104690000CD11FB100242046BDE8F88F064B074916
:1046A000034840F2614203F0A7FFF3E75C46B8E736
:1046B000C296000874000020B7A4000875A5000881
:1046C0005C0000204DA500082DE9F84F044630B9E4
:1046D0003A4B3B493B4840F27B4203F08DFF237D40
:1046E000032B06D8354B3849364840F27C4203F05C
:1046F00083FF364B364E1B78364F13F0100F00F009
:104700009980D4E9150C3368334DB4F860102A68E9
:10471000A0EB030EBEF1000FA9460CDB984203D1BB
:10472000ACEB0200002806DB944513D12B4800684F
:10473000C08988420ED92948B4F862800068C089CF
:10474000A4F860001FFA80FEC4E91532F04538BFB6
:10475000A4F86200606C131A002B00F377813B8889
:10476000002B40F06F81B4F86030A56D61442B449C
:104770008B4240F06781B4F93030002BC0F2628187
:10478000904240F05F8194F84330FF2B1CBF01330F
:1047900084F8433094F84330032B21D9B4F84820EF
:1047A000638E13449BB24FF6FF719A4288BF0B464B
:1047B000A4F84830204601F05FFF12E0B7A40008DB
:1047C00095A50008C2960008AEA50008600000206C
:1047D00080000020960000205C000020880000205F
:1047E000E8D0606B30B3A36BD9F800209B1A002B84
:1047F00020DAB54BB4F93CC01A8880B2111ACCF358
:10480000CF05491B0BB2002BB8BF801AB4F93E206C
:10481000BCBF401903B2A2EBA2021CFA81F11344FF
:1048200009B29BB2E38703EBE103A4F84030002315
:10483000A187636338883368626A002800F05B836D
:10484000217D062900F25783D51A012D00F1A88198
:10485000C3F10101091A1144002900F3A1819B4B06
:10486000D3F804909846B9F1000F06D1984B9949B6
:10487000994840F2945203F0BFFE4FF6FE739D42FA
:1048800006D9934B9549944840F2955203F0B4FEF3
:10489000D8F804301B89ADB2AB4206D28C4B90499C
:1048A0008D4840F2975203F0A7FEB8F808305B1B22
:1048B000A8F80830D8F804301B895B1B9BB2002194
:1048C000B9F80A20AA42C0F0628129464846FEF79C
:1048D0001FFAD8F80C20636A336053603368626A49
:1048E000991A0029C0F23082258D581C811A491B63
:1048F000002900F32982934240F02082734DEB6837
:10490000B5F808809889FDF771FD10F0030018BF15
:104910000120238D404480B28342388042D2EB682C
:104920009889FDF763FDC20710D5EB68B3F80C80DA
:104930004046FDF75BFD00F03E00FDF757FD28F413
:104940007C58EB6848EA0008A3F80C80238D2B8183
:10495000EB689889FDF74AFD830748BF2B89686893
:1049600044BF03F1FF332B812989FEF7EBFAEB6893
:10497000B5F808809889FDF739FD10F0030018BFDD
:1049800001203368626A404480B238801844238D25
:104990001344984206D04E4B52494F4840F2CB52F6
:1049A00003F02AFE636F002B00F00981EB68988901
:1049B000FDF71CFDC00700F1FF80D4F8748030685B
:1049C0003B880344B8F1000F39D0D8F80CC0B8F8D0
:1049D0000810DCF804201144591A002980F21C81C7
:1049E0009B1A002B2BDDEB68121A2A819889FDF7A0
:1049F000FDFC830748BF2B89686844BF03F1FF3380
:104A00002B812989FEF79EFAEB68B5F80890988902
:104A1000FDF7ECFC10F0030018BF01203368484498
:104A200080B238801844D8F80C305B68984206D0C1
:104A3000274B2D49284840F2FC5203F0DDFDC4F815
:104A40007480BCE0002384F84330CAE6216D511A1B
:104A5000002900F39880618B480709D521F00401F3
:104A60006183B4F84A10A4F848100021A4F86A1031
:104A7000B4F93C00E18F6264227D01EBE001A4F80F
:104A80004010032A4FF00001A4F8421038D9B4F8BE
:104A90004810B4F84A208A429BB227D9628B12F49C
:104AA000006F628E14BF0120022012FB00F292B24E
:104AB0009A4294BF8B18CB189BB2994201D94FF6FA
:104AC000FF73A4F848301BE010250220640000208A
:104AD000B7A40008C7A50008C2960008D7A500081B
:104AE000E6A50008F6A500082DA60008B4F86A207F
:104AF00013449BB29A422ED899422ED9A4F86A3018
:104B000004F16608D4E91B214046FFF77FFDE16E02
:104B1000206702464046FFF779FD226FE066B2FA51
:104B200082F35B095B4223860023237708B9A4F84C
:104B30006800B249B4F8643009880B44A4F86430C2
:104B4000638B19057FF54DAECAB960B9638B23F449
:104B50000063638345E64FF6FF735B1AA4F86A307F
:104B6000638E0B44A8E7D4F84C80C3685868FDF7FF
:104B700040FCA8EB000000283FF733AEE6E7D4F88E
:104B80004C80D368F2E7204601F0F0FD29E6AD1A2B
:104B9000A9F80830A9F80A10ADB2D9F800908FE64C
:104BA0009B1A002BBEBF638B43F00203638395E621
:104BB00003686367FEF772FD606F0028F8D13A88DA
:104BC000336813446362238D934206D28C4B8D4924
:104BD0008D4840F2076203F00FFD238D3A889B1A3F
:104BE00023852046FEF7E6FC6B681A891AB1874ACE
:104BF000136000236B60EB689889FDF7F7FBC5072E
:104C000004D5834A137843F0200313707C4FDFF8F8
:104C10000882DFF8F4917BE0BCF80C00FDF7E6FBBE
:104C2000C1071AD5EB689889FDF7E0FB820714D419
:104C3000EB680120B3F80C90FDF7D8FBEB6849EA6C
:104C40000000988180B2B5F80890FDF7CFFB10F016
:104C5000030018BF012048443880D8F8009040462F
:104C6000FEF71CFDC846AAE633609089B5F808A097
:104C7000FDF7BCFB636AB5F808B010F0030018BF7D
:104C800001209A445044EB6860629889B4F828A0E7
:104C9000FDF7ACFB10F0030018BF0120584482451B
:104CA00006D23B4640F22B624146484603F0A4FC44
:104CB000EB68B5F808A09889FDF798FB10F00300A1
:104CC000238D18BF01205044181A20852046FEF776
:104CD00071FC69680B8933B14C4B186838B3FEF727
:104CE000A5F900236B60EB689889FDF77FFBC0078F
:104CF00009D5474A137843F020031370237D042B12
:104D000004BF072323752B6863672846FEF7C6FC9C
:104D1000656F25B1EA68616A53688B42A4D0638BE2
:104D2000D90706D523F0010343F0020303E019601D
:104D3000D7E743F001036383BDE8F88F656F45B99A
:104D40003448FEF7D1FC60672046BDE8F84F01F01B
:104D50000DBD4FF0000803F1FF3ED5F80CC0DCF8A4
:104D60000420934215D12B482B8902899A42EBD912
:104D7000FEF7BAFC0028E7D0B8F1000F07D0C8F85A
:104D800000002946FFF784FBDEE70D46E5E7606794
:104D9000F7E7B8F1000F09D1991A00293EDA1D484A
:104DA000FEF7A2FC0028CFD06067EAE7D8F80C1025
:104DB0004968AEEB0101002930DB811A00292DDCA6
:104DC0001448FEF791FC07460028BDD0D8F80C30F7
:104DD00031685A68B8F8083013445B1A002B07DDB5
:104DE000891A89B2D8F80400A8F80810FEF7AAF8C2
:104DF000C8F8007029463846C4E700BF7400002098
:104E0000B7A4000868A60008C29600087800002031
:104E10007C0000206400002087A600082968A846BE
:104E20000029B2D19B1A002B8EDDBCF80C00FDF7D7
:104E3000DDFAC20788D43648FEF756FC2860002801
:104E400082D0EB6831685A682B8913445B1A002BB7
:104E500005DD891A89B268682981FEF773F832681E
:104E60003B881344626A9B1A228D9B1A002B7FF7A2
:104E70006BAF2B68DB689889FDF7B8FAC30712D5CA
:104E80002B68DB68B3F80C804046FDF7AFFA00F002
:104E90003E00FDF7ABFA2B6828F47C58DB6848EA43
:104EA0000008A3F80C803268218D2B68891A626A89
:104EB0005868114489B21981FEF744F82B681D899E
:104EC000DB689889FDF792FA10F0030018BF012003
:104ED0003368626A284480B238801844238D1344B2
:104EE00098423FF431AF0B4B0B490C484FF4DF6253
:104EF00003F082FB28E7991A002906DB01339B1A8D
:104F0000228D9B1A002B7FF717AF638B0CE700BF36
:104F100064000020B7A40008F6A50008C2960008A7
:104F20002DE9F04F054689B028B9644B64496548BE
:104F3000832203F061FB644E6B6833606B89132B33
:104F400040F2B580614F3968786902F08AFE044604
:104F5000002840F0AC807B6903F0F003E02B00F008
:104F6000A68033689889FDF741FA810A01F0FC01B7
:104F7000132940F29C802B898B421FFA81FCC0F0E0
:104F80009680534A534814606C89DFF86CA1ACF1E9
:104F900014039BB2644503808046914645D328465E
:104FA000AAF80030FDF7B4FE3468DFF850B120886D
:104FB000FDF71CFA208034686088FDF717FA6080DE
:104FC00034686068FDF715FA60603468CBF800005B
:104FD000A068FDF70EFAA0603F4CD6F80090206064
:104FE000B9F80E00FDF702FA3368A9F80E009889A7
:104FF000FDF7FCF9394B059300F03F0210F0030F69
:105000001A70A2462A894CD1354B1A80354BDFF8ED
:10501000B4901C6800229846284B0692002C6FD151
:10502000314BDFF8A0901C6854E12B682BB9234B5F
:105030002E492448C22203F0DFFA14212846FDF746
:1050400067FE6C89AAF8004021462846B8F800A0FF
:10505000FDF75EFE2868AAEB040843891FFA88F86A
:10506000434524D34368C9F800304146FDF750FE5C
:105070002B891C446B89A4EB0A042C812BB10F4BA8
:105080001B491048DF2203F0B7FA2B682A891B89D5
:105090009A4289D0094B17490A48E02203F0ACFA3A
:1050A00082E7531C9BB20E499A420B80AED9284628
:1050B00009B0BDE8F04FFDF75FBE00BFB7A4000820
:1050C000ACA60008C296000888000020E03200204C
:1050D00090000020940000205C0000206000002070
:1050E000960000200C2502201C250220C4A60008E2
:1050F000D4A60008E0A600088C0000208000002054
:10510000227D2AB99B49FB22484603F075FA9A4B47
:10511000227D0A2A05D19949FC22484603F06CFAFF
:10512000954B227D012A05D19549FD22484603F081
:1051300063FA914B207AE16830B17A6892F83020B6
:105140000132D2B290426FD13268B4F818C01088E0
:10515000844569D1E08A5288904265D160683A6995
:10516000904261D120687A6990425DD1A14240F0BD
:105170002A84814B8349844840F20D1203F03CFAA3
:10518000069B3BB1069AE368D360D8F80030E36031
:10519000C8F80040E368A34206D1774B7B497A48C0
:1051A00040F2151203F028FA794B298919813168E8
:1051B0007848794FD96079495D6000221A600A60A9
:1051C0003A700280059A06901278079312F0080F41
:1051D000894603D06B7B43F001036B73A36F704D63
:1051E000002B00F04B812046FEF780FE0D3008D0EA
:1051F000A36F002B00F042816A4B1B88002B00F04C
:105200003D81638D13B9204601F0B0FA079B5868C1
:1052100000242C60C9F8004018B1FDF7ADFD079BD4
:105220005C6009B0BDE8F08F06940C46F6E6237D7D
:105230000A2B06D0504B5C4940F21F12484603F03F
:10524000DBF9227A32B17B6893F830300133DBB27C
:105250009A423ED13368208B1A88904239D15B88BC
:10526000E18A994235D162683B699A4231D122681C
:105270007B699A422DD1059B1B785E073FF517AFDE
:10528000484A16889A0714D5DBF80020636AD31AB7
:1052900014D4278DDB1B002B10DCCDE90110434B10
:1052A0000093DAF8001004333244204601F018FA73
:1052B000FDE6DF0742BF3E4B1B682362002E3FF432
:1052C000F6AE638B43F002036383204601F080FA5D
:1052D000EDE6E468002CAAD1364BD7F804C01A6872
:1052E0003168D7F814E09146B9F1000F13D18889DD
:1052F000FDF77CF843073FF5DAAE3368294A188892
:10530000118802905B88DBF800200193274B009303
:105310000A44043353E399F8080028B19CF830306C
:105320000133DBB298420CD14888B9F81630834279
:1053300007D1D9F80030734500F02483002B00F02A
:1053400021834C46D9F80C90CEE798077FF5AFAE95
:1053500099F81500FEF738FC824668BBD9F818307A
:10536000002B3FF4A4AE01464FF0FF32D9F81000F5
:1053700098479CE6FFA60008B7A4000826A70008E7
:1053800050A7000877A70008C2960008A2A7000847
:1053900064000020740000207C00002078000020C1
:1053A0002025022096000020CCA70008F032002023
:1053B00010250220142502207B69326803603B69B6
:1053C0004360B9F81630C3821378527843EA022357
:1053D000038303230375DBF8003001334362C362A8
:1053E000FEF71CFADBF80030CAF85800013BCAF897
:1053F0005430D9F81030CAF85000CAF84400CAF83E
:105400005C00CAF81030CAF87C9099F8093003F0B3
:105410000C038AF8093099F808308AF80830D8F86F
:105420000030CAF80C30C8F800A001F0A9FCA44B69
:10543000012250461A70FFF775F83368BAF83260E7
:10544000DB89AAF860300AF10402AAF8623010463B
:10545000059202F099FA059A01463046FEF7F8F9EE
:105460001221AAF83200504600F0BCFF20B12146BC
:105470005046FEF7ADFA1AE6504627E7059B2C602A
:105480001A78510739D5217D02291FD1226DDAF80A
:1054900000309A4207D13B7843F008033B70638B9E
:1054A00023F0010363833B78190740F10582D4F8A8
:1054B00090301BB120696FF00D019847814821465B
:1054C000FEF720FA2046FDF79DFF9FE6626ADBF8B3
:1054D00000309A4207D09B1AE5D4228D9B1A002BEC
:1054E000E1DC638B10E00029D5D1774B7749784810
:1054F0004FF44E7203F080F8CDE79207638B06D528
:10550000227D023A012A02D943F00203CAE7D806F3
:105510005EBF704B1B6823620023A4F89A302046BC
:10552000FFF700F8237D023B072BBCD8DFE813F020
:1055300008009C0025012901740125018D01AD01A0
:10554000059B1B7803F01202122A6DD1626CDAF807
:10555000001001328A4267D1DBF800306264591CC6
:1055600032686162E162013BD28963650423A4F879
:105570006020A4F86220E21823751046668E05921A
:1055800002F002FA059A01463046FEF761F941F24F
:105590001C1342009A42164638BF1E46B6EB800FD7
:1055A00060864FEA800133D98BB2A4F84830B4F852
:1055B000663033B9444B484945484FF45B7203F0B9
:1055C0001BF8B4F86630266F013BA4F866301EBBAA
:1055D000E66E36B93C4B41493D484FF45D7203F0ED
:1055E0000BF83368E3663046FEF758F8236FB3B91B
:1055F0004FF6FF732386D4F88830002B3FF471AF49
:1056000020690022214698470D307FF46AAFFDE5FE
:105610009A4288BF93B2C8E733682367E3E7002361
:10562000238684F84230E6E7D9067FF53CAF33683D
:105630002B4A1888118802905B880193DBF80020C0
:10564000284B00930A440433DAF80010204601F096
:1056500047F894F84230052B3FF625AF0023238608
:10566000204601F07DFA1EE7059B1B78DA0676D509
:10567000636CDAF80010DB43CB425FD4236DCB1AA6
:10568000002B5BDC04232375E36F1BB92046FEF778
:1056900021FABBE59B6933B90B4B13490C484FF416
:1056A0006A7202F0A9FFE36F9B69002BEED02069BC
:1056B000002221469847C8B10D303FF4A7ADE5E779
:1056C000082502200C250220B7A40008F9A700082D
:1056D000C29600081025022019A800082FA800086B
:1056E00096000020F032002042A800082046FEF775
:1056F000EBFF069B1B8813B1069A013B1380618E5A
:1057000041F21C134A009A42164638BF1E46B6EBB9
:10571000810F4FEA81000DD983B2A4F848303B785D
:1057200099067FF5C0AE638B43F0020363830723C2
:105730002375B8E69A4288BF93B2EEE73368A54A6C
:105740001E88108802965B88DBF800200193A24B2C
:10575000009302440433204600F0C2FFA3E69807FA
:105760007FF5A1AE636ADBF80020013B93427FF432
:105770009AAE204600F03EFF95E62046FEF7A4FFD5
:10578000CDE72046FEF7A0FF3B7813F0200F059BE6
:105790001B7832D013F0100F638B29D0216DDAF80B
:1057A0000020914224D1E26E12BB43F002036383D6
:1057B0002046FEF775F8D8F800309C420AD1E3681D
:1057C000C8F8003008E0DA68944202D1E268DA6092
:1057D00002E01346002BF6D1804B01221A700A23F7
:1057E00023757F4B1A68E2601C6001F0C9FA5AE623
:1057F00043F00203638308239AE7DA067FF553AE8A
:10580000226DDAF800309A427FF44DAEE36E002B41
:105810007FF449AE06238BE72046FEF755FF3B7821
:105820009B067FF540AE638B43F002036383204603
:10583000FEF736F8D8F800309C42C0D0002BCBD011
:10584000DA689442C2D01346F8E72046FEF73CFFE0
:10585000059B1B78DE067FF526AE226DDAF8003058
:105860009A427FF420AEE36E002B7FF41CAE2046FC
:10587000FEF716F8D8F800309C42A0D0002BABD031
:10588000DA689442A2D01346F8E72046FEF71CFFE0
:10589000059B1B78D8067FF506AE226DDAF800303E
:1058A0009A427FF400AEE36E002B7FF4FCAD3B78B0
:1058B00043F010033B70F6E5069B1A882AB1D4F832
:1058C0008030F3B9069A002313802046FEF772FE5B
:1058D00000287FF49BACD9F8003033B3A36F33B109
:1058E000404B414941484FF4F37202F085FE638B0F
:1058F000D9F8002013F0100309D01046FDF73CFA48
:10590000C4E62069214698470D30DBD17EE4D4F807
:105910008460FEB120692146B04710F10D0F3FF4BD
:1059200075AC10B1D9F80030A3673B789A0605D55D
:10593000A36FABB15A7B42F020025A73002320467A
:105940002B60FEF737FE00287FF460AC204600F0A5
:105950003FFF5BE4334621463046FEF7A3FADCE71F
:10596000238DD4F88460B3F5866F1CBF0133238583
:10597000002EE3D0002320691A462146B0470D309F
:10598000DCD143E43CB1D9F80C30E360184BC9F8E2
:105990000C20C3F80090059B1B785C073FF587AB94
:1059A00013F010043FF4D1AC0A4BDBF800201C8844
:1059B0000B88CDE90103084B009322440433DAF845
:1059C0000010484672E4069B002B7FF4DBABFFF728
:1059D000EBBB00BF96000020F0320020082502201B
:1059E0001C250220B7A4000860A80008C296000881
:1059F00014250220024A137843F0100313707047F5
:105A00007C00002010B5044630B9064B0649074813
:105A100040F29A5202F0F0FD6368D889013818BF4D
:105A2000012010BD7AA80008ADA80008C2960008A1
:105A30002DE9F843089D9DF8289080460C461746AE
:105A40001E462DB91C4B1D491D48E92202F0D4FD0C
:105A5000BC422ED29DF824309A0709D46B8B5B068A
:105A600027D4B9F1000F03D0EB6E0BB92B6F03B342
:105A700004F21B2525F00301B9420A4628BF3A4625
:105A800091B24FF420724046FDF7DAF9054668B14D
:105A9000036833B1084B0B49094840F20B1202F07E
:105AA000ABFD6B891B1B33802C816C812846BDE8C4
:105AB000F8832146E5E700BF7AA80008D2A80008CD
:105AC000C2960008F1A800082DE9F0470E469DF89F
:105AD00020A090469946074628B92E4B2E492F48BC
